:020000040000FA
:100000008A11F72FFF0000308A007F088207072837
:100010008A15DE28F100F0013A3071020318162823
:1000200030307102031C1628F001F00A700C080031
:10003000F800F401F5017008F200F3017208F6000F
:100040007308F700781C2A287608F4070318F50AC5
:100050007708F50701300310F60DF70DFF3E031D7D
:100060002B280310F80C7808031D22287508F100CE
:100070007408F0000800F8007808031DF31F5028EA
:100080007009FA007109FB007209FC007309FD0098
:10009000FA0A0319FB0A0319FC0A0319FD0A582876
:1000A0007308FD007208FC007108FB007008FA007C
:1000B0007308720471047004031D67280030F30094
:1000C0000030F2000030F1000030F00008009630FF
:1000D000F4007408F900FE307D05031998280130FA
:1000E000F4007408F90701300310FD0CFC0CFB0C44
:1000F000FA0CFF3E031D74286B280130F4007408CD
:10010000F9070130FA07003003180130FB0700300F
:1001100003180130FC07003003180130FD070130DF
:100120000310FD0CFC0CFB0CFA0CFF3E031D902889
:10013000FF307D050319AC287D2802307902031CAD
:10014000AE280130F9020130F4000310FA0DFB0D66
:10015000FC0DFD0DF40BA528FC1F9D287918B8286F
:10016000FF30FA05FF30FB057F30FC05FF30FD0551
:100170000310F90C7908F400F501F601F7011830C5
:100180000310F40DF50DF60DF70DFF3E031DC0280D
:100190007408FA047508FB047608FC047708FD046B
:1001A0007808031DF31FD528FD177D08F3007C0890
:1001B000F2007B08F1007A08F0000800A0308312FA
:1001C0000313D4005408DD005108F3005008F20076
:1001D0004F08F1004E08F0000030F7000030F60044
:1001E0000030F5000030F4008A158B238A110318C3
:1001F0001B292D3083120313D4005D08840054089A
:10020000831380000130D4005408DD075108F30047
:100210005008F2004F08F1004E08F0008A15F22055
:100220008A11730883120313D1007208D000710879
:10023000CF007008CE00831203135108BD00500890
:10024000BC004F08BB004E08BA008A1597228A11DD
:10025000831203133D08DC003C08DB003B08DA0096
:100260003A08D9005C08F3005B08F2005A08F10074
:100270005908F00000308A113B208A11730883125C
:100280000313AB007208AA007108A9007008A80047
:100290005108AF005008AE004F08AD004E08AC004A
:1002A0008A1570218A11831203132B08D1002A08A2
:1002B000D0002908CF002808CE005108A700500818
:1002C000A6004F08A5004E08A4004930A3007430D2
:1002D000A2002430A1000030A0008A11A0218A11C0
:1002E000831203132308BD002208BC002108BB00B1
:1002F0002008BA008A1597228A11831203133D0839
:10030000D8003C08D7003B08D6003A08D500383062
:10031000D4005408C0005C08C4005B08C3005A083D
:10032000C2005908C1005808C8005708C70056083D
:10033000C6005508C5005D088A155021A030080088
:100340008312031323088039A8002808AD0023086E
:10035000A8002807A9002908B300A21B33143308FA
:100360000319BF29330A031DBD290030A300003043
:10037000A2000030A1000030A000A217C729003061
:10038000A3000030A2000030A1000030A000270828
:100390008039A8002808AD062708A8002807A9006A
:1003A0002908B200A61B321432080319E429320AC4
:1003B000031DE2290030A7000030A6000030A50090
:1003C0000030A400A617EC290030A7000030A600DA
:1003D0000030A5000030A4003208031D3308031DBF
:1003E000FA290030A3000030A2000030A100003044
:1003F000A00008002008A8002808F00026088A119C
:1004000018208A11710883120313B9007008B8000C
:100410003808A800A901AA01AB012B08B1002A08DD
:10042000B0002908AF002808AE003908A800A901CB
:10043000AA01AB012B08B7002A08B6002908B500AD
:100440002808B4002108A8002808F00025088A110F
:1004500018208A11710883120313B9007008B800BC
:100460003808A800A901AA01AB012808AE0729088D
:1004700003110318013E031DAF072A0803110318D7
:10048000013E031DB0072B0803110318013E031D95
:10049000B1073908A800A901AA01AB012808B407CF
:1004A000290803110318013E031DB5072A0803118B
:1004B0000318013E031DB6072B0803110318013E64
:1004C000031DB7072208A8002808F00024088A1195
:1004D00018208A11710883120313B9007008B8003C
:1004E0003808A800A901AA01AB012808AE0729080D
:1004F00003110318013E031DAF072A080311031857
:10050000013E031DB0072B0803110318013E031D14
:10051000B1073908A800A901AA01AB012808B4074E
:10052000290803110318013E031DB5072A0803110A
:100530000318013E031DB6072B0803110318013EE3
:10054000031DB7070830A8000310AE0DAF0DB00DA6
:10055000B10DA80BA42A2108A8002808F00024083F
:100560008A1118208A11710883120313B9007008C8
:10057000B8003808A8003908A900AA01AB0128086A
:10058000AE07290803110318013E031DAF072A080F
:1005900003110318013E031DB0072B0803110318B4
:1005A000013E031DB1072008A8002808F000250817
:1005B0008A1118208A11710883120313B900700878
:1005C000B8003808A8003908A900AA01AB0128081A
:1005D000AE07290803110318013E031DAF072A08BF
:1005E00003110318013E031DB0072B080311031864
:1005F000013E031DB1070830A8000310AE0DAF0D7A
:10060000B00DB10DA80BFD2A2008A8002808F000A5
:1006100024088A1118208A11710883120313B90063
:100620007008B8003808A8003908A900AA01AB0171
:100630002808AE07290803110318013E031DAF0760
:100640002A0803110318013E031DB0072B080311EC
:100650000318013E031DB1072108A8002808F00077
:1006600026088A1118208A11710883120313B90011
:100670007008B8003808A8003908A900AA01AB0121
:100680002808B407290803110318013E031DB50704
:100690002A0803110318013E031DB6072B08031196
:1006A0000318013E031DB7072208A8002808F00020
:1006B00025088A1118208A11710883120313B900C2
:1006C0007008B8003808A8003908A900AA01AB01D1
:1006D0002808B407290803110318013E031DB507B4
:1006E0002A0803110318013E031DB6072B08031146
:1006F0000318013E031DB7072208A8002808F000D0
:1007000026088A1118208A11710883120313B90070
:100710007008B8003808A8003908A900AA01AB0180
:1007200008300310A80DA90DAA0DAB0DFF3E031D47
:10073000912B2808B407290803110318013E031D53
:10074000B5072A0803110318013E031DB6072B083D
:1007500003110318013E031DB7072E08A8002F0838
:10076000A9003008AA003108AB0018300310AB0C08
:10077000AA0CA90CA80CFF3E031DB62B2808B40731
:10078000290803110318013E031DB5072A080311A8
:100790000318013E031DB6072B0803110318013E81
:1007A000031DB7070830A8000310AE0DAF0DB00D44
:1007B000B10DA80BD42B33083207A800A901A90D4D
:1007C0002808823EB80029080318013EFF3EB90000
:1007D000B61B052C0130A8000310B40DB50DB60DE5
:1007E000B70DA80BEC2BB11B34140130A80003107B
:1007F000AE0DAF0DB00DB10DA80BF72BFF30B80744
:100800000318B90AFF30B907E82BB201B11F1E2C3B
:10081000FF302E05A800FF302F05A900FF3030055E
:10082000AA007F303105AB002B082A0429042804D4
:10083000031934181C2C1E2CB201B20A32080319F9
:10084000502C0130B407003003180130B5070030D8
:1008500003180130B607003003180130B707371C02
:10086000502C3408A8003508A9003608AA0037081B
:10087000AB000130AC002B0DAB0CAA0CA90CA80CE2
:10088000AC0B3B2C2B08B7002A08B6002908B50092
:100890002808B4000130B8070318B90A0030B907B6
:1008A0003908803AFF0080307F02031D592CFF3049
:1008B0003802031C662C7F3083120313B70080308C
:1008C000B6000030B5000030B400962C831203133C
:1008D0003908803AFF0080307F02031D712C0130FF
:1008E000380203187F2C003083120313B700003046
:1008F000B6000030B5000030B400AD01962C831274
:1009000003133808A8002808B300FF30B405FF30EF
:10091000B5057F30B6050030B7053318B617330874
:10092000A8000310280CA9002908B7002D08A8006A
:100930002808B7043708A3003608A2003508A1002C
:100940003408A000080083120313BF0083120313AE
:100950002B08AE002A08AD00AA0A0319AB0A2E081C
:10096000FF002D0884008A1500208A11AF002F088F
:10097000BE003E080319F42F25303E060319E22C71
:100980003F0A8400831300080319D32C3E08AD00EE
:100990002D08F1003F0A840000088A1102208A1104
:1009A00083120313A62C3E08AD003F088400000804
:1009B00084002D0880000130AD003F0884002D0820
:1009C0008007A62CBA01BB01B9012B08FF002A0839
:1009D00084008A1500208A118A110A208A11031CBA
:1009E0002D2D83120313BA01BB010A30F000003031
:1009F000F100831203133B08F3003A08F2008A1552
:100A000091218A11710883120313BB007008BA0088
:100A10002B08FF002A0884008A1500208A11D03E86
:100A2000AD00FF3003180030AE002D08BA070318E0
:100A3000BB0A2E08BB070130AA070318AB0A003017
:100A4000AB072B08FF002A0884008A1500208A11B2
:100A50008A110A208A110318F52C831203132B081C
:100A6000FF002A0884008A1500208A112E3A031DEF
:100A7000792D0130AA070318AB0A0030AB07BC017F
:100A8000BD012B08FF002A0884008A1500208A1166
:100A90008A110A208A11031C112E831203133D08A8
:100AA000F1003C08F0000A30F2000030F3008A1533
:100AB00091218A11831203132B08FF002A08840056
:100AC0008A1500208A117007AD000030031801302C
:100AD0007107AE002D08D03EBC002E080318013E61
:100AE000FF3EBD000130AA070318AB0A0030AB0778
:100AF000412DBC01BD01112E3916112E3C083D04BB
:100B000003198E2D34083D02031D882D33083C0245
:100B100003188E2D3D08B4003C08B3003B08340296
:100B2000031D942D3A08330203189D2D3308BA0291
:100B30003408031CBB03BB029F2DBA01BB01FF306D
:100B400083120313BA070318BB0AFF30BB073A0A24
:100B500003193B0A0319F92D3F0A84008313000887
:100B60000319BD2D2030AD002D08F1003F0A84008F
:100B700000088A1102208A119F2D2030AD003F0805
:100B80008400000884002D0880000130AD003F087B
:100B900084002D0880079F2D3F0A840083130008DE
:100BA0000319E52D320884000008AD002D08F1007E
:100BB0003F0A840000088A1102208A110130831242
:100BC0000313AD002D08B207F92D32088400000888
:100BD000AD003F088400000884002D08800001302B
:100BE000AD002D08B2070130AD003F0884002D088C
:100BF00080070130B3020030031CB403B402330A8F
:100C0000031DCC2D340A0319A62CCC2D3E30AD008B
:100C10002D08B2000130B3000030B4007E2D39172A
:100C20003A2E831203132B08AE002A08AD00AA0A3D
:100C30000319AB0A2E08FF002D0884008A15002036
:100C40008A11BE00AF00B0013008003A0319292E06
:100C5000062E2F08003A0319F42F643A03193A2E8E
:100C60000D3A03193A2E053A03197C2D193A031946
:100C70000F2E062E391B7B2E391E522E2C08840077
:100C800083130008AD00043080072D08840000089D
:100C9000B500840A0008B600840A0008B700840A78
:100CA0000008682E2C08840083130008AD00023071
:100CB00080072D0884000008AE00840A0008AF00F9
:100CC0002E08B5002F08B6000030B61BFF30B70065
:100CD000B800B81FA62E0330AD002D08B904B50921
:100CE000B609B709B809B50A0319B60A0319B70A4C
:100CF0000319B80AA62E391E922E2C0884008313DD
:100D00000008AD00043080072D0884000008B500FD
:100D1000840A0008B600840A0008B700840A0008A4
:100D2000B800A62E2C08840083130008AD00023002
:100D300080072D0884000008AE00840A0008AF0078
:100D40002E08B5002F08B600B701B8013C083D04D5
:100D5000031DB62E3808370436043504031DB62E9D
:100D60000130BC070318BD0A0030BD07BE01BE0A32
:100D70000A303E060319F02E3E08AD000130031084
:100D8000AD0DFF3E031DBF2E03102D0D013E84004F
:100D90008A150A208A11AE008A150A208A11AF002E
:100DA0008A150A208A11B0008A150A208A11B1001A
:100DB00031083802031DE62E30083702031DE62EE7
:100DC0002F083602031DE62E2E083502031CF02ED6
:100DD0000130AD002D08BE070A303E06031DBC2EB3
:100DE0003D08803A803C031DF72E3C083E02031864
:100DF000002F831203133C08AD002D08BE00162FF0
:100E0000831203133D08803AAD0080302D02031D8C
:100E10000B2F3E083C020318162F831203133E08C3
:100E2000AD00AE012D08BC002E08BD0083120313D7
:100E30003A083B040319262F390803390319262FD2
:100E4000FF30BA070318BB0AFF30BB073B08803AE4
:100E5000803C031D2D2F3A083E0203183B2F8312BE
:100E600003133E08AD00AE012D08BA022E08031C84
:100E7000BB03BB023F2F83120313BA01BB013A0825
:100E80003B0403196E2F3F0A8400831300080319E3
:100E9000542F2030AD002D08F1003F0A84000008D7
:100EA0008A1102208A11622F2030AD003F08840091
:100EB000000884002D0880000130AD003F08840048
:100EC0002D088007FF3083120313BA070318BB0AEB
:100ED000FF30BB073A083B04031D432F3908033991
:100EE0000319912F3F0A8400831300080319832FED
:100EF0002D30AD002D08F1003F0A840000088A1152
:100F000002208A11912F2D30AD003F088400000887
:100F100084002D0880000130AD003F0884002D08BA
:100F20008007FF3083120313BC070318BD0AFF308C
:100F3000BD073C0A03193D0A0319A62C0030A30083
:100F40000030A2000030A1000A30A0003C08AD0033
:100F500001300310AD0DFF3E031DA92F03102D0D11
:100F6000013E84008A150A208A11F0008A150A20A1
:100F70008A11F1008A150A208A11F2008A150A20C6
:100F80008A11F3003808F7003708F6003608F50034
:100F90003508F4008A1539228A1173088312031365
:100FA000A7007208A6007108A5007008A4008A15A1
:100FB000EB218A11831203132008303EAE002E0865
:100FC000BE003F0A8400831300080319F22F3E0875
:100FD000AD002D08F1003F0A840000088A110220AC
:100FE0008A11912F3E08842FAA01AB0108008313B8
:100FF000A0308400B1308A15EA2083018A15042BC1
:10100000FF1B0A2883137F1883170008840A03191B
:10101000FF0A080008308A000408840A82070034A6
:1010200001340034003400340A3400340034003415
:101030006434003400340034E834033400340034C1
:101040001034273400340034A034863401340034A2
:10105000403442340F3400348034963498340034B1
:101060000034E134F53405340034CA349A343B3466
:101070000A3441346E3461346C346F346734203454
:101080003A3420342534643420340A34003425348E
:101090006C3475342E34253432342E3432346C347E
:1010A0007534003456346F346C34743420343A342C
:0210B00000340A
:1011B400831603138F01080071088A15E2200800C2
:1011C400F000831203130C1EE32870089900080032
:1011D40064008001840A0406031900340406EB2821
:1011E4007308720471047004031908008030F30654
:1011F40008008130831203139F00831603139F0199
:101204009E01831203139E0108008A15DA208A15B1
:101214008A1524218A158A15FB208A158A1513211B
:1012240008000830831603178700903083120313D5
:1012340098002430831603139800A03099000130DD
:101244009A0008008312031389018501860187012E
:10125400083083160313890003308500803086002C
:10126400870103308316031788008901080083125D
:101274000313E4010130E2006208E5006030E2009B
:101284006208E3005E08AA005F08AB006330E20076
:101294006208AC0064308A11A3240800831203138B
:1012A400CA004A08C9004908CC00CD014130C90030
:1012B4004908CB004008AA000030031D8030AB0071
:1012C4004B30C9004908AC004C308A11A324831266
:1012D40003134C08840083138001080080308312B8
:1012E4000313AB062F08F3002E08F2002D08F100BB
:1012F4002C08F0002B08F7002A08F6002908F5004E
:101304002808F4008A15C125730883120313AB005F
:101314007208AA007108A9007008A8000800F40166
:10132400F501701C9B297208F4070318F50A730869
:10133400F50701300310F20DF30DFF3E031D9C2948
:1013440001300310F10CF00CFF3E031DA3297008BB
:101354007104031D93297508F1007408F000080056
:10136400F7007708F200F20DF20D831203131F0841
:101374007206C33972069F001F140630F200F20B86
:10138400C1290000831203139F149F18C7298316D1
:1013940003131E08F20006300310F20CFF3E031D77
:1013A400CE29831203131E08F300F4010310F30D76
:1013B400F40D0310F30DF40D72087307F5000030FB
:1013C400031801307407F6007508F0007608F10080
:1013D40008008312031323082204210420040319A0
:1013E400302AA901A90AA31B052A0130A800031069
:1013F400A00DA10DA20DA30DA80BF9290130A80081
:101404002808A907F52923082702031D132A2208FF
:101414002602031D132A21082502031D132A20086E
:101424002402031C232A2008A4022108031C210FE0
:10143400A5022208031C220FA6022308031C230F63
:10144400A70201300310A30CA20CA10CA00CFF3EB8
:10145400031D242A0130A902031D052A2708A3001D
:101464002608A2002508A1002408A00008000030D6
:10147400FC000030FB000030FA000030F900730873
:1014840072047104700403198E2AFD01FD0AF31B12
:10149400592A0130F8000310F00DF10DF20DF30D8F
:1014A400F80B4D2A0130F8007808FD07492A01306D
:1014B400F8000310F90DFA0DFB0DFC0DF80B5B2A77
:1014C40073087702031D702A72087602031D702ABE
:1014D40071087502031D702A70087402031C812AA6
:1014E4007008F4027108031C710FF5027208031CE2
:1014F400720FF6027308031C730FF702791401309C
:101504000310F30CF20CF10CF00CFF3E031D822AC5
:101514000130FD02031D592A7C08F3007B08F20008
:101524007A08F1007908F00008000310831203130D
:101534003C0D3D0DBE003E08C4004408031DAB2A0B
:101544000030BD000030BC000030BB000030BA00E9
:1015540008003A08BE003B08BF003C08C0003D0834
:10156400C1001F300310C10CC00CBF0CBE0CFF3EE9
:10157400031DB42A3E08C2004208C300BC17FF3052
:10158400BA05FF30BB05FF30BC050030BD05963001
:10159400C402C41FE22A4408803A973E031CA22ACC
:1015A40001300310BD0CBC0CBB0CBA0CFF3E031D78
:1015B400D32A0130BE003E08C4070319F52AD22AF3
:1015C400203044020318A22A44080319F52A0130E2
:1015D400BE000310BA0DBB0DBC0DBD0DBE0BEB2A36
:1015E4000130C402E62A430803190800BA09BB09FA
:1015F400BC09BD09BA0A0319BB0A0319BC0A0319B9
:10160400BD0A08008A1507218A1500308A15B221FF
:101614008A15710883120313EE007008ED0044303C
:10162400BD008030BC000030BB000030BA00403048
:10163400A300A030A2000030A1000030A0006D087B
:10164400F0006E08F100F201F30100308A113B2032
:101654008A15730883120313A7007208A600710881
:10166400A5007008A4008A11A0218A15831203130F
:101674002308C1002208C0002108BF002008BE00C2
:101684008A151E248A15831203133D08EC003C08B6
:10169400EB003B08EA003A08E9004330DE00803002
:1016A400DF008A1539218A15831203136C08D100CF
:1016B4006B08D0006A08CF006908CE000130D20060
:1016C4000030D3008A11DE208A1583120313DE0052
:1016D4000030DF008A1539218A152930831203135B
:1016E400DE008030DF006E08E1006D08E0008A153E
:1016F40039218A15153083120313E8004B30E700B3
:10170400BE30E600E60B842BE70B842BE80B842B1E
:10171400072B00307005F80000307105F9008030A7
:101724007205FA007F307305FB007B087A047904A4
:101734007804031DA52B0030F3000030F2000030C4
:10174400F1000030F00000307405F8000030750539
:10175400F90080307605FA007F307705FB007B08BE
:101764007A0479047804031DBF2B0030F70000309D
:10177400F6000030F5000030F400F31FE52B0030D4
:10178400F8000030F9000030FA008030FB007008E7
:10179400F8027108031C710FD02BD12BF9027208C7
:1017A400031C720FD62BD72BFA027308031C730F7A
:1017B400DC2BDD2BFB027B08F3007A08F2007908AE
:1017C400F1007808F000F71F0B2C0030F80000300F
:1017D400F9000030FA008030FB007408F802750844
:1017E400031C750FF62BF72BF9027608031C760FF2
:1017F400FC2BFD2BFA027708031C770F022C032C19
:10180400FB027B08F7007A08F6007908F5007808EF
:10181400F4008030F3068030F70677087302031D66
:10182400080076087202031D080075087102031D82
:1018340008007408700208008312031341088039F9
:10184400C2004208CB004108C2004207C30043085B
:10185400D200C01B5214520803193E2C520A031D15
:101864003B2C0030C1000030C0000030BF0000300D
:10187400BE00C017C101462C0030C1000030C000BA
:101884000030BF000030BE003D088039C20042086D
:10189400CB063D08C2004207C3004308D300BC1B6B
:1018A400531453080319642C530A031D612C00308C
:1018B400BD000030BC000030BB000030BA00BC17D3
:1018C400BD016C2C0030BD000030BC000030BB00FA
:1018D4000030BA003D083C043B043A04031D8B2C41
:1018E4000030C1000030C0000030BF000030BE0036
:1018F4008030C0047F30C1044B08C2004208C104D8
:101904004108BD004008BC003F08BB003E08BA00C7
:1019140008005208031D972C0030BD000030BC00A5
:101924000030BB000030BA0008005208C200C301F6
:101934004308C50053084202C400031CC5034408FD
:101944007F3ECC0045080318013E003ECD0041080F
:10195400CA004008C9003F08C8003E08C70000305C
:10196400C1000030C0000030BF000030BE000030B5
:10197400D1000030D0000030CF000030CE00D301C1
:101984001A30530203180A2D53080319E62C0130A8
:10199400C2000310C70DC80DC90DCA0DC20BCB2C54
:1019A4000130C2000310BE0DBF0DC00DC10DC20B2E
:1019B400D42CD11B3E140130C2000310CE0DCF0D28
:1019C400D00DD10DC20BDF2C3D084A02031DF42CAF
:1019D4003C084902031DF42C3B084802031DF42C67
:1019E4003A084702031C052D51173A08C7023B0861
:1019F400031C3B0FC8023C08031C3C0FC9023D08F2
:101A0400031C3D0FCA020130C2004208D307C22C96
:101A14004A08490448044704031D4E14C01B2D2DD5
:101A24000130C2000310BE0DBF0DC00DC10DC20BAD
:101A3400142DD11B3E140130C2000310CE0DCF0D66
:101A4400D00DD10DC20B1F2DFF30CC070318CD0ACA
:101A5400FF30CD07102DD301D11F462DFF304E0589
:101A6400C200FF304F05C300FF305005C4007F3073
:101A74005105C500450844044304420403193E18B3
:101A8400442D462DD301D30A53080319782D013070
:101A9400BE07003003180130BF07003003180130BF
:101AA400C007003003180130C107411C782D3E08DF
:101AB400C2003F08C3004008C4004108C50001300B
:101AC400C600450DC50CC40CC30CC20CC60B632D5B
:101AD4004508C1004408C0004308BF004208BE00D6
:101AE4000130CC070318CD0A0030CD074D08803AE9
:101AF400FF0080307F02031D812DFF304C02031C48
:101B0400912DFF3083120313CC000030CD00003040
:101B1400C1000030C0000030BF000030BE0083129E
:101B240003134D08803AFF0080307F02031D9C2D73
:101B340001304C020318AB2D83120313CC01CD01E9
:101B44000030C1000030C0000030BF000030BE00D3
:101B5400CB01831203134C08C2004208D200521C6A
:101B6400B52DC017B92D7F30C2004208C0055208F8
:101B7400C2000310420CC3004308C1007E2C73084A
:101B8400803983120313A0002008F8007308A00012
:101B94002007A1002108FA00F21B7A147A0803191D
:101BA400E12D7A0A031DDE2D0030F3000030F2002F
:101BB4000030F1000030F000F217F301E92D00309D
:101BC400F3000030F2000030F1000030F00077083C
:101BD4008039A0002008F90079087806031D7817D9
:101BE4007708A0002007A1002108F900F61B79144A
:101BF400790803190B2E790A031D082E0030F7000B
:101C04000030F6000030F5000030F400F617F7015C
:101C1400132E0030F7000030F6000030F5000030DD
:101C2400F4007A0879020318592E781F1D2E80308B
:101C3400A0002008F8067A08A0002008FB00790814
:101C4400A0002008FA007B08A0002008F900700812
:101C5400A0002008FB007408A0002008F0007B0806
:101C6400A0002008F4007108A0002008FB007508FB
:101C7400A0002008F1007B08A0002008F5007208ED
:101C8400A0002008FB007608A0002008F2007B08D2
:101C9400A0002008F6007308A0002008FB007708C5
:101CA400A0002008F3007B08A0002008F700FB0137
:101CB4007908A000A1012108A3007A082002A2004B
:101CC400031CA3032308803AFF0080307F02031D16
:101CD4006D2E1A302202031CAA2E7308720471049A
:101CE40070040319772E0130782E00308312031309
:101CF400A0002008FB000030F3000030F2000030A8
:101D0400F1000030F0007908A0002008FA00AE2E9F
:101D14007B1C972E7B0883120313A0000310200C56
:101D24000138A1002108FB00992E0310FB0C701848
:101D3400FB17013083120313A000730DF30CF20C94
:101D4400F10CF00CA00B9F2E0130A0002008FA0724
:101D540079087A02031C8A2E781BF32E7A08031D55
:101D6400BC2E0030F3000030F2000030F1000030EF
:101D7400F00008007408F007750803110318013E09
:101D8400031DF107760803110318013E031DF20732
:101D9400770803110318013E031DF307731C992FE1
:101DA4007B1CDF2E7B0883120313A0000310200C7E
:101DB4000138A1002108FB00E12E0310FB0C701870
:101DC400FB17013083120313A000730DF30CF20C04
:101DD400F10CF00CA00BE72E0130A0002008FA074C
:101DE400992F7308803AFF007708803A7F02031D19
:101DF400052F76087202031D052F75087102031D55
:101E0400052F7408700203185F2FFF308312031329
:101E1400A000FF30A100FF30A200FF30A30074082F
:101E2400A4007508A5007608A6007708A700700826
:101E3400A4027108031C710F202F212FA502720820
:101E4400031C720F262F272FA6027308031C730F7F
:101E54002C2F2D2FA7022408A00725080318250FCF
:101E6400342F352FA10726080318260F3A2F3B2FAE
:101E7400A20727080318270AA3072308F300220848
:101E8400F2002108F1002008F0008030A0002008B2
:101E9400F806FB09FB0A7B08031D6D2F0130F007D0
:101EA400003003180130F107003003180130F20745
:101EB400003003180130F3076D2F7408F002750821
:101EC400031C750FF1027608031C760FF2027708E3
:101ED400031C770FF3027308720471047004031D6A
:101EE400972F7B08031D972F0030F3000030F2007A
:101EF4000030F1000030F0000800013083120313B9
:101F0400A0000310F00DF10DF20DF30DA00B832FC3
:101F1400FB1B70147B1C902F0314912F0310FB0DDB
:101F24007A080319972F0130FA02F21F7F2FF90163
:101F3400FB1FA42F7B087F3903197018A22FA42F2D
:101F4400F901F90A79080319D92F0130F007003093
:101F540003180130F107003003180130F207003094
:101F640003180130F307731CD92F7008831203136D
:101F7400A0007108A1007208A2007308A300013038
:101F8400A400230DA30CA20CA10CA00CA40BC32F22
:101F94002308F3002208F2002108F1002008F000D1
:101FA4007A0A0319D92F0130A0002008FA077A0A07
:101FB400031D7A08031DE92F0030F3000030F200FE
:101FC4000030F1000030F0007A080319F8017A1C9F
:101FD400ED2FF217F32F7F3083120313A000200894
:101FE400F2057A0883120313A0000310200CA10049
:0C1FF4002108F300F81F0800F317080094
:04400E00FAEFFFFFC7
:00000001FF
